{
  "contractName": "MilkCollectionContract",
  "abi": [
    {
      "anonymous": false,
      "inputs": [
        {
          "indexed": true,
          "internalType": "string",
          "name": "vid",
          "type": "string"
        },
        {
          "indexed": false,
          "internalType": "string",
          "name": "batchData",
          "type": "string"
        },
        {
          "indexed": false,
          "internalType": "uint256",
          "name": "timestamp",
          "type": "uint256"
        },
        {
          "indexed": false,
          "internalType": "uint256",
          "name": "startDate",
          "type": "uint256"
        },
        {
          "indexed": false,
          "internalType": "uint256",
          "name": "endDate",
          "type": "uint256"
        },
        {
          "indexed": false,
          "internalType": "string",
          "name": "location",
          "type": "string"
        },
        {
          "indexed": false,
          "internalType": "string",
          "name": "cooperativeName",
          "type": "string"
        }
      ],
      "name": "MilkCollected",
      "type": "event"
    },
    {
      "inputs": [
        {
          "internalType": "string",
          "name": "",
          "type": "string"
        },
        {
          "internalType": "uint256",
          "name": "",
          "type": "uint256"
        }
      ],
      "name": "milkCollectionHistory",
      "outputs": [
        {
          "internalType": "string",
          "name": "vid",
          "type": "string"
        },
        {
          "internalType": "string",
          "name": "batchData",
          "type": "string"
        },
        {
          "internalType": "uint256",
          "name": "timestamp",
          "type": "uint256"
        },
        {
          "internalType": "uint256",
          "name": "startDate",
          "type": "uint256"
        },
        {
          "internalType": "uint256",
          "name": "endDate",
          "type": "uint256"
        },
        {
          "internalType": "string",
          "name": "location",
          "type": "string"
        },
        {
          "internalType": "string",
          "name": "cooperativeName",
          "type": "string"
        }
      ],
      "stateMutability": "view",
      "type": "function"
    },
    {
      "inputs": [
        {
          "internalType": "string",
          "name": "vid",
          "type": "string"
        },
        {
          "internalType": "string",
          "name": "batchData",
          "type": "string"
        },
        {
          "internalType": "uint256",
          "name": "startDate",
          "type": "uint256"
        },
        {
          "internalType": "uint256",
          "name": "endDate",
          "type": "uint256"
        },
        {
          "internalType": "string",
          "name": "location",
          "type": "string"
        },
        {
          "internalType": "string",
          "name": "cooperativeName",
          "type": "string"
        }
      ],
      "name": "storeMilkCollectionData",
      "outputs": [],
      "stateMutability": "nonpayable",
      "type": "function"
    },
    {
      "inputs": [
        {
          "internalType": "string",
          "name": "vid",
          "type": "string"
        }
      ],
      "name": "getMostRecentMilkCollectionData",
      "outputs": [
        {
          "internalType": "string",
          "name": "",
          "type": "string"
        },
        {
          "internalType": "string",
          "name": "",
          "type": "string"
        },
        {
          "internalType": "uint256",
          "name": "",
          "type": "uint256"
        },
        {
          "internalType": "uint256",
          "name": "",
          "type": "uint256"
        },
        {
          "internalType": "uint256",
          "name": "",
          "type": "uint256"
        },
        {
          "internalType": "string",
          "name": "",
          "type": "string"
        },
        {
          "internalType": "string",
          "name": "",
          "type": "string"
        }
      ],
      "stateMutability": "view",
      "type": "function"
    },
    {
      "inputs": [
        {
          "internalType": "string",
          "name": "vid",
          "type": "string"
        }
      ],
      "name": "getAllMilkBatches",
      "outputs": [
        {
          "components": [
            {
              "internalType": "string",
              "name": "vid",
              "type": "string"
            },
            {
              "internalType": "string",
              "name": "batchData",
              "type": "string"
            },
            {
              "internalType": "uint256",
              "name": "timestamp",
              "type": "uint256"
            },
            {
              "internalType": "uint256",
              "name": "startDate",
              "type": "uint256"
            },
            {
              "internalType": "uint256",
              "name": "endDate",
              "type": "uint256"
            },
            {
              "internalType": "string",
              "name": "location",
              "type": "string"
            },
            {
              "internalType": "string",
              "name": "cooperativeName",
              "type": "string"
            }
          ],
          "internalType": "struct MilkCollectionContract.MilkBatch[]",
          "name": "",
          "type": "tuple[]"
        }
      ],
      "stateMutability": "view",
      "type": "function"
    }
  ],
  "bytecode": "0x608060405234801561001057600080fd5b506113b4806100206000396000f3fe608060405234801561001057600080fd5b506004361061004c5760003560e01c806346ef69871461005157806353f62125146100875780636b00249a146100a357806389fc3c37146100d9575b600080fd5b61006b60048036038101906100669190610d96565b610109565b60405161007e979695949392919061101e565b60405180910390f35b6100a1600480360381019061009c9190610cad565b61039e565b005b6100bd60048036038101906100b89190610c6c565b61050b565b6040516100d0979695949392919061101e565b60405180910390f35b6100f360048036038101906100ee9190610c6c565b610869565b6040516101009190610ffc565b60405180910390f35b600082805160208101820180518482526020830160208501208183528095505050505050818154811061013b57600080fd5b90600052602060002090600702016000915091505080600001805461015f90611266565b80601f016020809104026020016040519081016040528092919081815260200182805461018b90611266565b80156101d85780601f106101ad576101008083540402835291602001916101d8565b820191906000526020600020905b8154815290600101906020018083116101bb57829003601f168201915b5050505050908060010180546101ed90611266565b80601f016020809104026020016040519081016040528092919081815260200182805461021990611266565b80156102665780601f1061023b57610100808354040283529160200191610266565b820191906000526020600020905b81548152906001019060200180831161024957829003601f168201915b50505050509080600201549080600301549080600401549080600501805461028d90611266565b80601f01602080910402602001604051908101604052809291908181526020018280546102b990611266565b80156103065780601f106102db57610100808354040283529160200191610306565b820191906000526020600020905b8154815290600101906020018083116102e957829003601f168201915b50505050509080600601805461031b90611266565b80601f016020809104026020016040519081016040528092919081815260200182805461034790611266565b80156103945780601f1061036957610100808354040283529160200191610394565b820191906000526020600020905b81548152906001019060200180831161037757829003601f168201915b5050505050905087565b6000866040516103ae9190610fe5565b90815260200160405180910390206040518060e001604052808881526020018781526020014281526020018681526020018581526020018481526020018381525090806001815401808255809150506001900390600052602060002090600702016000909190919091506000820151816000019080519060200190610434929190610b4c565b506020820151816001019080519060200190610451929190610b4c565b5060408201518160020155606082015181600301556080820151816004015560a082015181600501908051906020019061048c929190610b4c565b5060c08201518160060190805190602001906104a9929190610b4c565b505050856040516104ba9190610fe5565b60405180910390207f79bbb171c5259e707f646cefefea74c61d58891d9f4c785b1ffaae7782d7055a8642878787876040516104fb969594939291906110a9565b60405180910390a2505050505050565b6060806000806000606080600080896040516105279190610fe5565b90815260200160405180910390209050600081805490501115610803576000816001838054905061055891906111e6565b8154811061058f577f4e487b7100000000000000000000000000000000000000000000000000000000600052603260045260246000fd5b90600052602060002090600702019050806000018160010182600201548360030154846004015485600501866006018680546105ca90611266565b80601f01602080910402602001604051908101604052809291908181526020018280546105f690611266565b80156106435780601f1061061857610100808354040283529160200191610643565b820191906000526020600020905b81548152906001019060200180831161062657829003601f168201915b5050505050965085805461065690611266565b80601f016020809104026020016040519081016040528092919081815260200182805461068290611266565b80156106cf5780601f106106a4576101008083540402835291602001916106cf565b820191906000526020600020905b8154815290600101906020018083116106b257829003601f168201915b505050505095508180546106e290611266565b80601f016020809104026020016040519081016040528092919081815260200182805461070e90611266565b801561075b5780601f106107305761010080835404028352916020019161075b565b820191906000526020600020905b81548152906001019060200180831161073e57829003601f168201915b5050505050915080805461076e90611266565b80601f016020809104026020016040519081016040528092919081815260200182805461079a90611266565b80156107e75780601f106107bc576101008083540402835291602001916107e7565b820191906000526020600020905b8154815290600101906020018083116107ca57829003601f168201915b505050505090509850985098509850985098509850505061085e565b6000806000604051806020016040528060008152509291906040518060200160405280600081525092919060405180602001604052806000815250604051806020016040528060008152509750975097509750975097509750505b919395979092949650565b606060008260405161087b9190610fe5565b9081526020016040518091039020805480602002602001604051908101604052809291908181526020016000905b82821015610b4157838290600052602060002090600702016040518060e00160405290816000820180546108dc90611266565b80601f016020809104026020016040519081016040528092919081815260200182805461090890611266565b80156109555780601f1061092a57610100808354040283529160200191610955565b820191906000526020600020905b81548152906001019060200180831161093857829003601f168201915b5050505050815260200160018201805461096e90611266565b80601f016020809104026020016040519081016040528092919081815260200182805461099a90611266565b80156109e75780601f106109bc576101008083540402835291602001916109e7565b820191906000526020600020905b8154815290600101906020018083116109ca57829003601f168201915b50505050508152602001600282015481526020016003820154815260200160048201548152602001600582018054610a1e90611266565b80601f0160208091040260200160405190810160405280929190818152602001828054610a4a90611266565b8015610a975780601f10610a6c57610100808354040283529160200191610a97565b820191906000526020600020905b815481529060010190602001808311610a7a57829003601f168201915b50505050508152602001600682018054610ab090611266565b80601f0160208091040260200160405190810160405280929190818152602001828054610adc90611266565b8015610b295780601f10610afe57610100808354040283529160200191610b29565b820191906000526020600020905b815481529060010190602001808311610b0c57829003601f168201915b505050505081525050815260200190600101906108a9565b505050509050919050565b828054610b5890611266565b90600052602060002090601f016020900481019282610b7a5760008555610bc1565b82601f10610b9357805160ff1916838001178555610bc1565b82800160010185558215610bc1579182015b82811115610bc0578251825591602001919060010190610ba5565b5b509050610bce9190610bd2565b5090565b5b80821115610beb576000816000905550600101610bd3565b5090565b6000610c02610bfd84611144565b61111f565b905082815260208101848484011115610c1a57600080fd5b610c25848285611224565b509392505050565b600082601f830112610c3e57600080fd5b8135610c4e848260208601610bef565b91505092915050565b600081359050610c6681611367565b92915050565b600060208284031215610c7e57600080fd5b600082013567ffffffffffffffff811115610c9857600080fd5b610ca484828501610c2d565b91505092915050565b60008060008060008060c08789031215610cc657600080fd5b600087013567ffffffffffffffff811115610ce057600080fd5b610cec89828a01610c2d565b965050602087013567ffffffffffffffff811115610d0957600080fd5b610d1589828a01610c2d565b9550506040610d2689828a01610c57565b9450506060610d3789828a01610c57565b935050608087013567ffffffffffffffff811115610d5457600080fd5b610d6089828a01610c2d565b92505060a087013567ffffffffffffffff811115610d7d57600080fd5b610d8989828a01610c2d565b9150509295509295509295565b60008060408385031215610da957600080fd5b600083013567ffffffffffffffff811115610dc357600080fd5b610dcf85828601610c2d565b9250506020610de085828601610c57565b9150509250929050565b6000610df68383610f16565b905092915050565b6000610e0982611185565b610e1381856111a8565b935083602082028501610e2585611175565b8060005b85811015610e615784840389528151610e428582610dea565b9450610e4d8361119b565b925060208a01995050600181019050610e29565b50829750879550505050505092915050565b6000610e7e82611190565b610e8881856111b9565b9350610e98818560208601611233565b610ea181611356565b840191505092915050565b6000610eb782611190565b610ec181856111ca565b9350610ed1818560208601611233565b610eda81611356565b840191505092915050565b6000610ef082611190565b610efa81856111db565b9350610f0a818560208601611233565b80840191505092915050565b600060e0830160008301518482036000860152610f338282610e73565b91505060208301518482036020860152610f4d8282610e73565b9150506040830151610f626040860182610fc7565b506060830151610f756060860182610fc7565b506080830151610f886080860182610fc7565b5060a083015184820360a0860152610fa08282610e73565b91505060c083015184820360c0860152610fba8282610e73565b9150508091505092915050565b610fd08161121a565b82525050565b610fdf8161121a565b82525050565b6000610ff18284610ee5565b915081905092915050565b600060208201905081810360008301526110168184610dfe565b905092915050565b600060e0820190508181036000830152611038818a610eac565b9050818103602083015261104c8189610eac565b905061105b6040830188610fd6565b6110686060830187610fd6565b6110756080830186610fd6565b81810360a08301526110878185610eac565b905081810360c083015261109b8184610eac565b905098975050505050505050565b600060c08201905081810360008301526110c38189610eac565b90506110d26020830188610fd6565b6110df6040830187610fd6565b6110ec6060830186610fd6565b81810360808301526110fe8185610eac565b905081810360a08301526111128184610eac565b9050979650505050505050565b600061112961113a565b90506111358282611298565b919050565b6000604051905090565b600067ffffffffffffffff82111561115f5761115e611327565b5b61116882611356565b9050602081019050919050565b6000819050602082019050919050565b600081519050919050565b600081519050919050565b6000602082019050919050565b600082825260208201905092915050565b600082825260208201905092915050565b600082825260208201905092915050565b600081905092915050565b60006111f18261121a565b91506111fc8361121a565b92508282101561120f5761120e6112c9565b5b828203905092915050565b6000819050919050565b82818337600083830152505050565b60005b83811015611251578082015181840152602081019050611236565b83811115611260576000848401525b50505050565b6000600282049050600182168061127e57607f821691505b60208210811415611292576112916112f8565b5b50919050565b6112a182611356565b810181811067ffffffffffffffff821117156112c0576112bf611327565b5b80604052505050565b7f4e487b7100000000000000000000000000000000000000000000000000000000600052601160045260246000fd5b7f4e487b7100000000000000000000000000000000000000000000000000000000600052602260045260246000fd5b7f4e487b7100000000000000000000000000000000000000000000000000000000600052604160045260246000fd5b6000601f19601f8301169050919050565b6113708161121a565b811461137b57600080fd5b5056fea2646970667358221220debc0af5e0eb1492255527dda93d31b805a494f46392d5ac8282e6e0785a3e7d64736f6c63430008010033",
  "immutableReferences": {},
  "source": "// SPDX-License-Identifier: MIT\npragma solidity ^0.8.0;\n\ncontract MilkCollectionContract {\n    struct MilkBatch {\n        string vid;\n        string batchData;\n        uint256 timestamp;\n        uint256 startDate;\n        uint256 endDate;\n        string location;\n        string cooperativeName;\n    }\n\n    mapping(string => MilkBatch[]) public milkCollectionHistory;\n\n    event MilkCollected(\n        string indexed vid,\n        string batchData,\n        uint256 timestamp,\n        uint256 startDate,\n        uint256 endDate,\n        string location,\n        string cooperativeName\n    );\n\n    function storeMilkCollectionData(\n        string memory vid,\n        string memory batchData,\n        uint256 startDate,\n        uint256 endDate,\n        string memory location,\n        string memory cooperativeName\n    ) public {\n        milkCollectionHistory[vid].push(\n            MilkBatch({\n                vid: vid,\n                batchData: batchData,\n                timestamp: block.timestamp,\n                startDate: startDate,\n                endDate: endDate,\n                location: location,\n                cooperativeName: cooperativeName\n            })\n        );\n\n        emit MilkCollected(\n            vid,\n            batchData,\n            block.timestamp,\n            startDate,\n            endDate,\n            location,\n            cooperativeName\n        );\n    }\n\n    function getMostRecentMilkCollectionData(string memory vid) public view returns (\n        string memory,\n        string memory,\n        uint256,\n        uint256,\n        uint256,\n        string memory,\n        string memory\n    ) {\n        MilkBatch[] storage batches = milkCollectionHistory[vid];\n        if (batches.length > 0) {\n            MilkBatch storage mostRecentBatch = batches[batches.length - 1];\n            return (\n                mostRecentBatch.vid,\n                mostRecentBatch.batchData,\n                mostRecentBatch.timestamp,\n                mostRecentBatch.startDate,\n                mostRecentBatch.endDate,\n                mostRecentBatch.location,\n                mostRecentBatch.cooperativeName\n            );\n        } else {\n            return (\"\", \"\", 0, 0, 0, \"\", \"\");\n        }\n    }\n\n    function getAllMilkBatches(string memory vid) public view returns (MilkBatch[] memory) {\n        return milkCollectionHistory[vid];\n    }\n}\n",
  "sourcePath": "/home/kinya/VIbranium/antugrow-safari/contract/contracts/base.sol",
  "compiler": {
    "name": "solc",
    "version": "0.8.1+commit.df193b15.Emscripten.clang"
  },
  "schemaVersion": "3.4.16",
  "updatedAt": "2023-09-20T15:48:33.843Z",
  "devdoc": {
    "kind": "dev",
    "methods": {},
    "version": 1
  },
  "userdoc": {
    "kind": "user",
    "methods": {},
    "version": 1
  }
}